{
  "contractName": "CowOwnership",
  "abi": [
    {
      "constant": true,
      "inputs": [
        {
          "name": "interfaceId",
          "type": "bytes4"
        }
      ],
      "name": "supportsInterface",
      "outputs": [
        {
          "name": "",
          "type": "bool"
        }
      ],
      "payable": false,
      "stateMutability": "view",
      "type": "function"
    },
    {
      "constant": true,
      "inputs": [],
      "name": "name",
      "outputs": [
        {
          "name": "",
          "type": "string"
        }
      ],
      "payable": false,
      "stateMutability": "view",
      "type": "function"
    },
    {
      "constant": true,
      "inputs": [
        {
          "name": "_cowNum",
          "type": "uint256"
        }
      ],
      "name": "getIdByCowNum",
      "outputs": [
        {
          "name": "",
          "type": "uint256"
        }
      ],
      "payable": false,
      "stateMutability": "view",
      "type": "function"
    },
    {
      "constant": true,
      "inputs": [
        {
          "name": "",
          "type": "uint256"
        }
      ],
      "name": "cows",
      "outputs": [
        {
          "name": "cowNum",
          "type": "uint256"
        },
        {
          "name": "cowMom",
          "type": "uint256"
        },
        {
          "name": "birthDate",
          "type": "uint256"
        },
        {
          "name": "types",
          "type": "string"
        },
        {
          "name": "sex",
          "type": "string"
        }
      ],
      "payable": false,
      "stateMutability": "view",
      "type": "function"
    },
    {
      "constant": true,
      "inputs": [
        {
          "name": "",
          "type": "uint256"
        }
      ],
      "name": "cowToOwner",
      "outputs": [
        {
          "name": "",
          "type": "address"
        }
      ],
      "payable": false,
      "stateMutability": "view",
      "type": "function"
    },
    {
      "constant": true,
      "inputs": [],
      "name": "owner",
      "outputs": [
        {
          "name": "",
          "type": "address"
        }
      ],
      "payable": false,
      "stateMutability": "view",
      "type": "function"
    },
    {
      "constant": true,
      "inputs": [],
      "name": "symbol",
      "outputs": [
        {
          "name": "",
          "type": "string"
        }
      ],
      "payable": false,
      "stateMutability": "view",
      "type": "function"
    },
    {
      "constant": true,
      "inputs": [
        {
          "name": "_cowNum",
          "type": "uint256"
        }
      ],
      "name": "getOwnerByCow",
      "outputs": [
        {
          "name": "",
          "type": "address"
        }
      ],
      "payable": false,
      "stateMutability": "view",
      "type": "function"
    },
    {
      "constant": false,
      "inputs": [
        {
          "name": "_cowMom",
          "type": "uint256"
        },
        {
          "name": "_types",
          "type": "string"
        },
        {
          "name": "_sex",
          "type": "string"
        }
      ],
      "name": "cowBirth",
      "outputs": [],
      "payable": false,
      "stateMutability": "nonpayable",
      "type": "function"
    },
    {
      "constant": true,
      "inputs": [
        {
          "name": "tokenId",
          "type": "uint256"
        }
      ],
      "name": "tokenURI",
      "outputs": [
        {
          "name": "",
          "type": "string"
        }
      ],
      "payable": false,
      "stateMutability": "view",
      "type": "function"
    },
    {
      "constant": true,
      "inputs": [
        {
          "name": "_owner",
          "type": "address"
        }
      ],
      "name": "getCountByOwner",
      "outputs": [
        {
          "name": "",
          "type": "uint256"
        }
      ],
      "payable": false,
      "stateMutability": "view",
      "type": "function"
    },
    {
      "constant": true,
      "inputs": [
        {
          "name": "_owner",
          "type": "address"
        }
      ],
      "name": "getCowsByOwner",
      "outputs": [
        {
          "name": "",
          "type": "uint256[]"
        }
      ],
      "payable": false,
      "stateMutability": "view",
      "type": "function"
    },
    {
      "constant": false,
      "inputs": [
        {
          "name": "newOwner",
          "type": "address"
        }
      ],
      "name": "transferOwnership",
      "outputs": [],
      "payable": false,
      "stateMutability": "nonpayable",
      "type": "function"
    },
    {
      "inputs": [],
      "payable": false,
      "stateMutability": "nonpayable",
      "type": "constructor"
    },
    {
      "anonymous": false,
      "inputs": [
        {
          "indexed": true,
          "name": "from",
          "type": "address"
        },
        {
          "indexed": true,
          "name": "to",
          "type": "address"
        },
        {
          "indexed": true,
          "name": "tokenId",
          "type": "uint256"
        }
      ],
      "name": "Transfer",
      "type": "event"
    },
    {
      "anonymous": false,
      "inputs": [
        {
          "indexed": true,
          "name": "owner",
          "type": "address"
        },
        {
          "indexed": true,
          "name": "approved",
          "type": "address"
        },
        {
          "indexed": true,
          "name": "tokenId",
          "type": "uint256"
        }
      ],
      "name": "Approval",
      "type": "event"
    },
    {
      "anonymous": false,
      "inputs": [
        {
          "indexed": true,
          "name": "owner",
          "type": "address"
        },
        {
          "indexed": true,
          "name": "operator",
          "type": "address"
        },
        {
          "indexed": false,
          "name": "approved",
          "type": "bool"
        }
      ],
      "name": "ApprovalForAll",
      "type": "event"
    },
    {
      "anonymous": false,
      "inputs": [
        {
          "indexed": false,
          "name": "tokenId",
          "type": "uint256"
        },
        {
          "indexed": false,
          "name": "cowType",
          "type": "string"
        },
        {
          "indexed": false,
          "name": "cowSex",
          "type": "string"
        }
      ],
      "name": "Breeding",
      "type": "event"
    },
    {
      "anonymous": false,
      "inputs": [
        {
          "indexed": true,
          "name": "previousOwner",
          "type": "address"
        },
        {
          "indexed": true,
          "name": "newOwner",
          "type": "address"
        }
      ],
      "name": "OwnershipTransferred",
      "type": "event"
    },
    {
      "constant": true,
      "inputs": [
        {
          "name": "_owner",
          "type": "address"
        }
      ],
      "name": "balanceOf",
      "outputs": [
        {
          "name": "_balance",
          "type": "uint256"
        }
      ],
      "payable": false,
      "stateMutability": "view",
      "type": "function"
    },
    {
      "constant": true,
      "inputs": [
        {
          "name": "_tokenId",
          "type": "uint256"
        }
      ],
      "name": "ownerOf",
      "outputs": [
        {
          "name": "_owner",
          "type": "address"
        }
      ],
      "payable": false,
      "stateMutability": "view",
      "type": "function"
    },
    {
      "constant": false,
      "inputs": [
        {
          "name": "_to",
          "type": "address"
        },
        {
          "name": "_tokenId",
          "type": "uint256"
        }
      ],
      "name": "approve",
      "outputs": [],
      "payable": false,
      "stateMutability": "nonpayable",
      "type": "function"
    },
    {
      "constant": true,
      "inputs": [
        {
          "name": "_tokenId",
          "type": "uint256"
        }
      ],
      "name": "getApproved",
      "outputs": [
        {
          "name": "operator",
          "type": "address"
        }
      ],
      "payable": false,
      "stateMutability": "view",
      "type": "function"
    },
    {
      "constant": false,
      "inputs": [
        {
          "name": "_operator",
          "type": "address"
        },
        {
          "name": "_approved",
          "type": "bool"
        }
      ],
      "name": "setApprovalForAll",
      "outputs": [],
      "payable": false,
      "stateMutability": "nonpayable",
      "type": "function"
    },
    {
      "constant": true,
      "inputs": [
        {
          "name": "_owner",
          "type": "address"
        },
        {
          "name": "_operator",
          "type": "address"
        }
      ],
      "name": "isApprovedForAll",
      "outputs": [
        {
          "name": "",
          "type": "bool"
        }
      ],
      "payable": false,
      "stateMutability": "view",
      "type": "function"
    },
    {
      "constant": false,
      "inputs": [
        {
          "name": "_from",
          "type": "address"
        },
        {
          "name": "_to",
          "type": "address"
        },
        {
          "name": "_tokenId",
          "type": "uint256"
        }
      ],
      "name": "transferFrom",
      "outputs": [],
      "payable": false,
      "stateMutability": "nonpayable",
      "type": "function"
    },
    {
      "constant": false,
      "inputs": [
        {
          "name": "_from",
          "type": "address"
        },
        {
          "name": "_to",
          "type": "address"
        },
        {
          "name": "_tokenId",
          "type": "uint256"
        }
      ],
      "name": "safeTransferFrom",
      "outputs": [],
      "payable": false,
      "stateMutability": "nonpayable",
      "type": "function"
    },
    {
      "constant": false,
      "inputs": [
        {
          "name": "_from",
          "type": "address"
        },
        {
          "name": "_to",
          "type": "address"
        },
        {
          "name": "_tokenId",
          "type": "uint256"
        },
        {
          "name": "_data",
          "type": "bytes"
        }
      ],
      "name": "safeTransferFrom",
      "outputs": [],
      "payable": false,
      "stateMutability": "nonpayable",
      "type": "function"
    },
    {
      "constant": false,
      "inputs": [
        {
          "name": "_tokenId",
          "type": "uint256"
        },
        {
          "name": "_uri",
          "type": "string"
        }
      ],
      "name": "setTokenURI",
      "outputs": [],
      "payable": false,
      "stateMutability": "nonpayable",
      "type": "function"
    },
    {
      "constant": false,
      "inputs": [
        {
          "name": "_tokenId",
          "type": "uint256"
        }
      ],
      "name": "burn",
      "outputs": [],
      "payable": false,
      "stateMutability": "nonpayable",
      "type": "function"
    }
  ],
  "bytecode": "0x6080604052600a600155600154600a0a6002556040805190810160405280600881526020017f436f77546f6b656e000000000000000000000000000000000000000000000000815250601090805190602001906200005f929190620003ea565b506040805190810160405280600481526020017f4357544b0000000000000000000000000000000000000000000000000000000081525060119080519060200190620000ad929190620003ea565b50348015620000bb57600080fd5b5060108054600181600116156101000203166002900480601f016020809104026020016040519081016040528092919081815260200182805460018160011615610100020316600290048015620001565780601f106200012a5761010080835404028352916020019162000156565b820191906000526020600020905b8154815290600101906020018083116200013857829003601f168201915b505050505060118054600181600116156101000203166002900480601f016020809104026020016040519081016040528092919081815260200182805460018160011615610100020316600290048015620001f55780601f10620001c957610100808354040283529160200191620001f5565b820191906000526020600020905b815481529060010190602001808311620001d757829003601f168201915b5050505050336000806101000a81548173ffffffffffffffffffffffffffffffffffffffff021916908373ffffffffffffffffffffffffffffffffffffffff160217905550620002776301ffc9a77c0100000000000000000000000000000000000000000000000000000000026200032b640100000000026401000000009004565b620002b46380ac58cd7c0100000000000000000000000000000000000000000000000000000000026200032b640100000000026401000000009004565b81600d9080519060200190620002cc929190620003ea565b5080600e9080519060200190620002e5929190620003ea565b5062000323635b5e139f7c0100000000000000000000000000000000000000000000000000000000026200032b640100000000026401000000009004565b505062000499565b63ffffffff7c010000000000000000000000000000000000000000000000000000000002817bffffffffffffffffffffffffffffffffffffffffffffffffffffffff1916141515156200037d57600080fd5b600160086000837bffffffffffffffffffffffffffffffffffffffffffffffffffffffff19167bffffffffffffffffffffffffffffffffffffffffffffffffffffffff1916815260200190815260200160002060006101000a81548160ff02191690831515021790555050565b828054600181600116156101000203166002900490600052602060002090601f016020900481019282601f106200042d57805160ff19168380011785556200045e565b828001600101855582156200045e579182015b828111156200045d57825182559160200191906001019062000440565b5b5090506200046d919062000471565b5090565b6200049691905b808211156200049257600081600090555060010162000478565b5090565b90565b61298f80620004a96000396000f30060806040526004361061013e576000357c0100000000000000000000000000000000000000000000000000000000900463ffffffff16806301ffc9a71461014357806306fdde03146101a7578063081812fc14610237578063095ea7b3146102a4578063162094c4146102f157806323b872dd146103365780633943621f146103a35780633b928b7b146103e457806342842e0e1461050b57806342966c68146105785780635515d0f6146105a55780636352211e1461061257806370a082311461067f5780638da5cb5b146106d657806395d89b411461072d578063a0d371d2146107bd578063a22cb4651461082a578063a6c7540114610879578063b88d4fde14610932578063c87b56dd146109e5578063e985e9c514610a8b578063edd963ac14610b06578063f1ab0df614610b5d578063f2fde38b14610bf5575b600080fd5b34801561014f57600080fd5b5061018d60048036038101908080357bffffffffffffffffffffffffffffffffffffffffffffffffffffffff19169060200190929190505050610c38565b604051808215151515815260200191505060405180910390f35b3480156101b357600080fd5b506101bc610ca0565b6040518080602001828103825283818151815260200191508051906020019080838360005b838110156101fc5780820151818401526020810190506101e1565b50505050905090810190601f1680156102295780820380516001836020036101000a031916815260200191505b509250505060405180910390f35b34801561024357600080fd5b5061026260048036038101908080359060200190929190505050610d42565b604051808273ffffffffffffffffffffffffffffffffffffffff1673ffffffffffffffffffffffffffffffffffffffff16815260200191505060405180910390f35b3480156102b057600080fd5b506102ef600480360381019080803573ffffffffffffffffffffffffffffffffffffffff16906020019092919080359060200190929190505050610d93565b005b3480156102fd57600080fd5b5061033460048036038101908080359060200190929190803590602001908201803590602001919091929391929390505050610fd0565b005b34801561034257600080fd5b506103a1600480360381019080803573ffffffffffffffffffffffffffffffffffffffff169060200190929190803573ffffffffffffffffffffffffffffffffffffffff16906020019092919080359060200190929190505050611059565b005b3480156103af57600080fd5b506103ce6004803603810190808035906020019092919050505061107e565b6040518082815260200191505060405180910390f35b3480156103f057600080fd5b5061040f6004803603810190808035906020019092919050505061109b565b604051808681526020018581526020018481526020018060200180602001838103835285818151815260200191508051906020019080838360005b8381101561046557808201518184015260208101905061044a565b50505050905090810190601f1680156104925780820380516001836020036101000a031916815260200191505b50838103825284818151815260200191508051906020019080838360005b838110156104cb5780820151818401526020810190506104b0565b50505050905090810190601f1680156104f85780820380516001836020036101000a031916815260200191505b5097505050505050505060405180910390f35b34801561051757600080fd5b50610576600480360381019080803573ffffffffffffffffffffffffffffffffffffffff169060200190929190803573ffffffffffffffffffffffffffffffffffffffff16906020019092919080359060200190929190505050611210565b005b34801561058457600080fd5b506105a360048036038101908080359060200190929190505050611231565b005b3480156105b157600080fd5b506105d060048036038101908080359060200190929190505050611286565b604051808273ffffffffffffffffffffffffffffffffffffffff1673ffffffffffffffffffffffffffffffffffffffff16815260200191505060405180910390f35b34801561061e57600080fd5b5061063d600480360381019080803590602001909291905050506112b9565b604051808273ffffffffffffffffffffffffffffffffffffffff1673ffffffffffffffffffffffffffffffffffffffff16815260200191505060405180910390f35b34801561068b57600080fd5b506106c0600480360381019080803573ffffffffffffffffffffffffffffffffffffffff169060200190929190505050611337565b6040518082815260200191505060405180910390f35b3480156106e257600080fd5b506106eb6113bb565b604051808273ffffffffffffffffffffffffffffffffffffffff1673ffffffffffffffffffffffffffffffffffffffff16815260200191505060405180910390f35b34801561073957600080fd5b506107426113e0565b6040518080602001828103825283818151815260200191508051906020019080838360005b83811015610782578082015181840152602081019050610767565b50505050905090810190601f1680156107af5780820380516001836020036101000a031916815260200191505b509250505060405180910390f35b3480156107c957600080fd5b506107e860048036038101908080359060200190929190505050611482565b604051808273ffffffffffffffffffffffffffffffffffffffff1673ffffffffffffffffffffffffffffffffffffffff16815260200191505060405180910390f35b34801561083657600080fd5b50610877600480360381019080803573ffffffffffffffffffffffffffffffffffffffff1690602001909291908035151590602001909291905050506114bf565b005b34801561088557600080fd5b5061093060048036038101908080359060200190929190803590602001908201803590602001908080601f0160208091040260200160405190810160405280939291908181526020018383808284378201915050505050509192919290803590602001908201803590602001908080601f01602080910402602001604051908101604052809392919081815260200183838082843782019150505050505091929192905050506116c6565b005b34801561093e57600080fd5b506109e3600480360381019080803573ffffffffffffffffffffffffffffffffffffffff169060200190929190803573ffffffffffffffffffffffffffffffffffffffff16906020019092919080359060200190929190803590602001908201803590602001908080601f01602080910402602001604051908101604052809392919081815260200183838082843782019150505050505091929192905050506117be565b005b3480156109f157600080fd5b50610a10600480360381019080803590602001909291905050506117e6565b6040518080602001828103825283818151815260200191508051906020019080838360005b83811015610a50578082015181840152602081019050610a35565b50505050905090810190601f168015610a7d5780820380516001836020036101000a031916815260200191505b509250505060405180910390f35b348015610a9757600080fd5b50610aec600480360381019080803573ffffffffffffffffffffffffffffffffffffffff169060200190929190803573ffffffffffffffffffffffffffffffffffffffff1690602001909291905050506118af565b604051808215151515815260200191505060405180910390f35b348015610b1257600080fd5b50610b47600480360381019080803573ffffffffffffffffffffffffffffffffffffffff169060200190929190505050611943565b6040518082815260200191505060405180910390f35b348015610b6957600080fd5b50610b9e600480360381019080803573ffffffffffffffffffffffffffffffffffffffff16906020019092919050505061198c565b6040518080602001828103825283818151815260200191508051906020019060200280838360005b83811015610be1578082015181840152602081019050610bc6565b505050509050019250505060405180910390f35b348015610c0157600080fd5b50610c36600480360381019080803573ffffffffffffffffffffffffffffffffffffffff169060200190929190505050611ae5565b005b600060086000837bffffffffffffffffffffffffffffffffffffffffffffffffffffffff19167bffffffffffffffffffffffffffffffffffffffffffffffffffffffff1916815260200190815260200160002060009054906101000a900460ff169050919050565b6060600d8054600181600116156101000203166002900480601f016020809104026020016040519081016040528092919081815260200182805460018160011615610100020316600290048015610d385780601f10610d0d57610100808354040283529160200191610d38565b820191906000526020600020905b815481529060010190602001808311610d1b57829003601f168201915b5050505050905090565b6000610d4d82611c3a565b1515610d5857600080fd5b6012600083815260200190815260200160002060009054906101000a900473ffffffffffffffffffffffffffffffffffffffff169050919050565b6000610d9e826112b9565b90508073ffffffffffffffffffffffffffffffffffffffff168373ffffffffffffffffffffffffffffffffffffffff1614151515610e6a576040517f08c379a00000000000000000000000000000000000000000000000000000000081526004018080602001828103825260238152602001807f417070726f76616c20746f20746865206f776e65722069732070726f6869626981526020017f746564000000000000000000000000000000000000000000000000000000000081525060400191505060405180910390fd5b8073ffffffffffffffffffffffffffffffffffffffff163373ffffffffffffffffffffffffffffffffffffffff161480610eaa5750610ea981336118af565b5b1515610f1e576040517f08c379a00000000000000000000000000000000000000000000000000000000081526004018080602001828103825260148152602001807f556e7065726d697474656420617070726f76616c00000000000000000000000081525060200191505060405180910390fd5b826012600084815260200190815260200160002060006101000a81548173ffffffffffffffffffffffffffffffffffffffff021916908373ffffffffffffffffffffffffffffffffffffffff160217905550818373ffffffffffffffffffffffffffffffffffffffff168273ffffffffffffffffffffffffffffffffffffffff167f8c5be1e5ebec7d5bd14f71427d1e84f3dd0314c0f7b2291e5b200ac8c7c3b92560405160405180910390a4505050565b6000610fdb846112b9565b90508073ffffffffffffffffffffffffffffffffffffffff163373ffffffffffffffffffffffffffffffffffffffff1614151561101757600080fd5b6110538484848080601f016020809104026020016040519081016040528093929190818152602001838380828437820191505050505050611cac565b50505050565b6110633382611cec565b151561106e57600080fd5b611079838383611d81565b505050565b600060076000838152602001908152602001600020549050919050565b6003818154811015156110aa57fe5b9060005260206000209060050201600091509050806000015490806001015490806002015490806003018054600181600116156101000203166002900480601f0160208091040260200160405190810160405280929190818152602001828054600181600116156101000203166002900480156111685780601f1061113d57610100808354040283529160200191611168565b820191906000526020600020905b81548152906001019060200180831161114b57829003601f168201915b505050505090806004018054600181600116156101000203166002900480601f0160208091040260200160405190810160405280929190818152602001828054600181600116156101000203166002900480156112065780601f106111db57610100808354040283529160200191611206565b820191906000526020600020905b8154815290600101906020018083116111e957829003601f168201915b5050505050905085565b61122c83838360206040519081016040528060008152506117be565b505050565b600061123c826112b9565b90508073ffffffffffffffffffffffffffffffffffffffff163373ffffffffffffffffffffffffffffffffffffffff1614151561127857600080fd5b6112828183611fe6565b5050565b60046020528060005260406000206000915054906101000a900473ffffffffffffffffffffffffffffffffffffffff1681565b6000806004600084815260200190815260200160002060009054906101000a900473ffffffffffffffffffffffffffffffffffffffff169050600073ffffffffffffffffffffffffffffffffffffffff168173ffffffffffffffffffffffffffffffffffffffff161415151561132e57600080fd5b80915050919050565b60008073ffffffffffffffffffffffffffffffffffffffff168273ffffffffffffffffffffffffffffffffffffffff161415151561137457600080fd5b600560008373ffffffffffffffffffffffffffffffffffffffff1673ffffffffffffffffffffffffffffffffffffffff168152602001908152602001600020549050919050565b6000809054906101000a900473ffffffffffffffffffffffffffffffffffffffff1681565b6060600e8054600181600116156101000203166002900480601f0160208091040260200160405190810160405280929190818152602001828054600181600116156101000203166002900480156114785780601f1061144d57610100808354040283529160200191611478565b820191906000526020600020905b81548152906001019060200180831161145b57829003601f168201915b5050505050905090565b60006004600083815260200190815260200160002060009054906101000a900473ffffffffffffffffffffffffffffffffffffffff169050919050565b600073ffffffffffffffffffffffffffffffffffffffff168273ffffffffffffffffffffffffffffffffffffffff161415151561158a576040517f08c379a00000000000000000000000000000000000000000000000000000000081526004018080602001828103825260268152602001807f417070726f76616c20746f207a65726f20616464726573732069732070726f6881526020017f696269746564000000000000000000000000000000000000000000000000000081525060400191505060405180910390fd5b3373ffffffffffffffffffffffffffffffffffffffff168273ffffffffffffffffffffffffffffffffffffffff16141515156115c557600080fd5b80601360003373ffffffffffffffffffffffffffffffffffffffff1673ffffffffffffffffffffffffffffffffffffffff16815260200190815260200160002060008473ffffffffffffffffffffffffffffffffffffffff1673ffffffffffffffffffffffffffffffffffffffff16815260200190815260200160002060006101000a81548160ff0219169083151502179055508173ffffffffffffffffffffffffffffffffffffffff163373ffffffffffffffffffffffffffffffffffffffff167f17307eab39ab6107e8899845ad3d59bd9653f200f220920489ca2b5937696c3183604051808215151515815260200191505060405180910390a35050565b6000600254336001430340604051602001808373ffffffffffffffffffffffffffffffffffffffff1673ffffffffffffffffffffffffffffffffffffffff166c010000000000000000000000000281526014018260001916600019168152602001925050506040516020818303038152906040526040518082805190602001908083835b60208310151561176f578051825260208201915060208101905060208303925061174a565b6001836020036101000a0380198251168184511680821785525050505050509050019150506040518091039020600190048115156117a957fe5b0690506117b881858585612045565b50505050565b6117c9848484611059565b6117d58484848461232b565b15156117e057600080fd5b50505050565b60606117f182611c3a565b15156117fc57600080fd5b600f60008381526020019081526020016000208054600181600116156101000203166002900480601f0160208091040260200160405190810160405280929190818152602001828054600181600116156101000203166002900480156118a35780601f10611878576101008083540402835291602001916118a3565b820191906000526020600020905b81548152906001019060200180831161188657829003601f168201915b50505050509050919050565b6000601360008473ffffffffffffffffffffffffffffffffffffffff1673ffffffffffffffffffffffffffffffffffffffff16815260200190815260200160002060008373ffffffffffffffffffffffffffffffffffffffff1673ffffffffffffffffffffffffffffffffffffffff16815260200190815260200160002060009054906101000a900460ff16905092915050565b6000600560008373ffffffffffffffffffffffffffffffffffffffff1673ffffffffffffffffffffffffffffffffffffffff168152602001908152602001600020549050919050565b6060806000806000600560008773ffffffffffffffffffffffffffffffffffffffff1673ffffffffffffffffffffffffffffffffffffffff16815260200190815260200160002054604051908082528060200260200182016040528015611a025781602001602082028038833980820191505090505b50935060009250600090505b600380549050811015611ad957600660008281526020019081526020016000205491508573ffffffffffffffffffffffffffffffffffffffff166004600084815260200190815260200160002060009054906101000a900473ffffffffffffffffffffffffffffffffffffffff1673ffffffffffffffffffffffffffffffffffffffff161415611acc57818484815181101515611aa757fe5b9060200190602002018181525050611ac960018461254d90919063ffffffff16565b92505b8080600101915050611a0e565b83945050505050919050565b6000809054906101000a900473ffffffffffffffffffffffffffffffffffffffff1673ffffffffffffffffffffffffffffffffffffffff163373ffffffffffffffffffffffffffffffffffffffff16141515611b4057600080fd5b600073ffffffffffffffffffffffffffffffffffffffff168173ffffffffffffffffffffffffffffffffffffffff1614151515611b7c57600080fd5b8073ffffffffffffffffffffffffffffffffffffffff166000809054906101000a900473ffffffffffffffffffffffffffffffffffffffff1673ffffffffffffffffffffffffffffffffffffffff167f8be0079c531659141344cd1fd0a4f28419497f9722a3daafe3b4186f6b6457e060405160405180910390a3806000806101000a81548173ffffffffffffffffffffffffffffffffffffffff021916908373ffffffffffffffffffffffffffffffffffffffff16021790555050565b6000806004600084815260200190815260200160002060009054906101000a900473ffffffffffffffffffffffffffffffffffffffff169050600073ffffffffffffffffffffffffffffffffffffffff168173ffffffffffffffffffffffffffffffffffffffff161415915050919050565b611cb582611c3a565b1515611cc057600080fd5b80600f60008481526020019081526020016000209080519060200190611ce79291906127f6565b505050565b600080611cf8836112b9565b90508073ffffffffffffffffffffffffffffffffffffffff168473ffffffffffffffffffffffffffffffffffffffff161480611d6757508373ffffffffffffffffffffffffffffffffffffffff16611d4f84610d42565b73ffffffffffffffffffffffffffffffffffffffff16145b80611d785750611d7781856118af565b5b91505092915050565b8273ffffffffffffffffffffffffffffffffffffffff16611da1826112b9565b73ffffffffffffffffffffffffffffffffffffffff16141515611dc357600080fd5b600073ffffffffffffffffffffffffffffffffffffffff168273ffffffffffffffffffffffffffffffffffffffff1614151515611dff57600080fd5b611e088161256e565b611e5b6001600560008673ffffffffffffffffffffffffffffffffffffffff1673ffffffffffffffffffffffffffffffffffffffff1681526020019081526020016000205461262e90919063ffffffff16565b600560008573ffffffffffffffffffffffffffffffffffffffff1673ffffffffffffffffffffffffffffffffffffffff16815260200190815260200160002081905550611ef16001600560008573ffffffffffffffffffffffffffffffffffffffff1673ffffffffffffffffffffffffffffffffffffffff1681526020019081526020016000205461254d90919063ffffffff16565b600560008473ffffffffffffffffffffffffffffffffffffffff1673ffffffffffffffffffffffffffffffffffffffff16815260200190815260200160002081905550816004600083815260200190815260200160002060006101000a81548173ffffffffffffffffffffffffffffffffffffffff021916908373ffffffffffffffffffffffffffffffffffffffff160217905550808273ffffffffffffffffffffffffffffffffffffffff168473ffffffffffffffffffffffffffffffffffffffff167fddf252ad1be2c89b69c2b068fc378daa952ba7f163c4a11628f55a4df523b3ef60405160405180910390a4505050565b611ff0828261264f565b6000600f600083815260200190815260200160002080546001816001161561010002031660029004905014151561204157600f600082815260200190815260200160002060006120409190612876565b5b5050565b60006001600360a060405190810160405280888152602001878152602001428152602001868152602001858152509080600181540180825580915050906001820390600052602060002090600502016000909192909190915060008201518160000155602082015181600101556040820151816002015560608201518160030190805190602001906120d89291906128be565b5060808201518160040190805190602001906120f59291906128be565b505050039050846006600083815260200190815260200160002081905550806007600087815260200190815260200160002081905550336004600087815260200190815260200160002060006101000a81548173ffffffffffffffffffffffffffffffffffffffff021916908373ffffffffffffffffffffffffffffffffffffffff1602179055506121d06001600560003373ffffffffffffffffffffffffffffffffffffffff1673ffffffffffffffffffffffffffffffffffffffff1681526020019081526020016000205461254d90919063ffffffff16565b600560003373ffffffffffffffffffffffffffffffffffffffff1673ffffffffffffffffffffffffffffffffffffffff168152602001908152602001600020819055507f66abcd205f8b9a5481def41bf5a6be8f9239f6f8f0080a774ead3a4edb168723858484604051808481526020018060200180602001838103835285818151815260200191508051906020019080838360005b83811015612281578082015181840152602081019050612266565b50505050905090810190601f1680156122ae5780820380516001836020036101000a031916815260200191505b50838103825284818151815260200191508051906020019080838360005b838110156122e75780820151818401526020810190506122cc565b50505050905090810190601f1680156123145780820380516001836020036101000a031916815260200191505b509550505050505060405180910390a15050505050565b60008061234d8573ffffffffffffffffffffffffffffffffffffffff166127e3565b151561235c5760019150612544565b8473ffffffffffffffffffffffffffffffffffffffff1663150b7a02338887876040518563ffffffff167c0100000000000000000000000000000000000000000000000000000000028152600401808573ffffffffffffffffffffffffffffffffffffffff1673ffffffffffffffffffffffffffffffffffffffff1681526020018473ffffffffffffffffffffffffffffffffffffffff1673ffffffffffffffffffffffffffffffffffffffff16815260200183815260200180602001828103825283818151815260200191508051906020019080838360005b83811015612451578082015181840152602081019050612436565b50505050905090810190601f16801561247e5780820380516001836020036101000a031916815260200191505b5095505050505050602060405180830381600087803b1580156124a057600080fd5b505af11580156124b4573d6000803e3d6000fd5b505050506040513d60208110156124ca57600080fd5b8101908080519060200190929190505050905063150b7a027c0100000000000000000000000000000000000000000000000000000000027bffffffffffffffffffffffffffffffffffffffffffffffffffffffff1916817bffffffffffffffffffffffffffffffffffffffffffffffffffffffff19161491505b50949350505050565b600080828401905083811015151561256457600080fd5b8091505092915050565b600073ffffffffffffffffffffffffffffffffffffffff166012600083815260200190815260200160002060009054906101000a900473ffffffffffffffffffffffffffffffffffffffff1673ffffffffffffffffffffffffffffffffffffffff1614151561262b5760006012600083815260200190815260200160002060006101000a81548173ffffffffffffffffffffffffffffffffffffffff021916908373ffffffffffffffffffffffffffffffffffffffff1602179055505b50565b60008083831115151561264057600080fd5b82840390508091505092915050565b8173ffffffffffffffffffffffffffffffffffffffff1661266f826112b9565b73ffffffffffffffffffffffffffffffffffffffff1614151561269157600080fd5b61269a8161256e565b6126ed6001600b60008573ffffffffffffffffffffffffffffffffffffffff1673ffffffffffffffffffffffffffffffffffffffff1681526020019081526020016000205461262e90919063ffffffff16565b600b60008473ffffffffffffffffffffffffffffffffffffffff1673ffffffffffffffffffffffffffffffffffffffff1681526020019081526020016000208190555060006009600083815260200190815260200160002060006101000a81548173ffffffffffffffffffffffffffffffffffffffff021916908373ffffffffffffffffffffffffffffffffffffffff16021790555080600073ffffffffffffffffffffffffffffffffffffffff168373ffffffffffffffffffffffffffffffffffffffff167fddf252ad1be2c89b69c2b068fc378daa952ba7f163c4a11628f55a4df523b3ef60405160405180910390a45050565b600080823b905060008111915050919050565b828054600181600116156101000203166002900490600052602060002090601f016020900481019282601f1061283757805160ff1916838001178555612865565b82800160010185558215612865579182015b82811115612864578251825591602001919060010190612849565b5b509050612872919061293e565b5090565b50805460018160011615610100020316600290046000825580601f1061289c57506128bb565b601f0160209004906000526020600020908101906128ba919061293e565b5b50565b828054600181600116156101000203166002900490600052602060002090601f016020900481019282601f106128ff57805160ff191683800117855561292d565b8280016001018555821561292d579182015b8281111561292c578251825591602001919060010190612911565b5b50905061293a919061293e565b5090565b61296091905b8082111561295c576000816000905550600101612944565b5090565b905600a165627a7a72305820f967b984b5f939abac2c21d69cdfceeefabfa044c2367d0431377c836bc0ee0e0029",
  "source": "pragma solidity ^0.4.23;\n\nimport \"./CowBreeding.sol\";\nimport \"openzeppelin-solidity/contracts/token/ERC721/ERC721.sol\";\nimport \"openzeppelin-solidity/contracts/token/ERC721/ERC721Metadata.sol\";\n\n/**\n * @title ERC721 compatible Cow Standard Basic Implementation\n * @dev Implements Cow transfer with inherited OpenZeppelin ERC721\n */\ncontract CowOwnership is CowBreeding, ERC721Metadata {\n\n  /// @notice Name and Symbol of the NFT token\n  string private _name = \"CowToken\";\n  string private _symbol = \"CWTK\";\n\n  // Mapping from token ID to approved address\n  mapping (uint256 => address) private _tokenApprovals;\n\n  // Mapping from owner to operator approvals\n  mapping (address => mapping (address => bool)) private _operatorApprovals;\n\n  constructor() public ERC721Metadata(_name, _symbol) {}\n\n  /**\n   * @dev Gets the balance of the specified address\n   * @param _owner address to query the balance of\n   * @return uint256 representing the amount owned by the passed address\n   */\n  function balanceOf(address _owner) public view returns (uint256 _balance) {\n    require(_owner != address(0));\n    return ownerCowCount[_owner];\n  }\n\n  /**\n   * @dev Gets the owner of the specified token ID\n   * @param _tokenId uint256 ID of the token to query the owner of\n   * @return owner address currently marked as the owner of the given token ID\n   */\n  function ownerOf(uint256 _tokenId) public view returns (address _owner) {\n    address owner = cowToOwner[_tokenId];\n    require(owner != address(0));\n    return owner;\n  }\n\n  /**\n   * @dev Approves another address to transfer the given token ID\n   * The zero address indicates there is no approved address.\n   * There can only be one approved address per token at a given time.\n   * Can only be called by the token owner or an approved operator.\n   * @param _to address to be approved for the given token ID\n   * @param _tokenId uint256 ID of the token to be approved\n   */\n  function approve(address _to, uint256 _tokenId) public {\n    // Only an owner can grant transfer approval\n    address owner = ownerOf(_tokenId);\n    // The address to be approved should not be the owner\n    require(_to != owner, \"Approval to the owner is prohibited\");\n    // Sender should be the owner and approved by the owner to transfer\n    require(msg.sender == owner || isApprovedForAll(owner, msg.sender), \"Unpermitted approval\");\n\n    // Register the approval (replacing any previous approval)\n    _tokenApprovals[_tokenId] = _to;\n\n    // Emit approval event\n    emit Approval(owner, _to, _tokenId);\n  }\n\n  /**\n   * @dev Gets the approved address for a token ID, or zero if no address set\n   * Reverts if the token ID does not exist.\n   * @param _tokenId uint256 ID of the token to query the approval of\n   * @return address currently approved for the given token ID\n   */\n  function getApproved(uint256 _tokenId) public view returns (address operator) {\n    require(_exists(_tokenId));\n    return _tokenApprovals[_tokenId];\n  }\n\n  /**\n   * @dev Sets or unsets the approval of a given operator\n   * An operator is allowed to transfer all tokens of the sender on their behalf\n   * @param _operator address to set the approval\n   * @param _approved representing the status of the approval to be set\n   */\n  function setApprovalForAll(address _operator, bool _approved) public {\n    require(_operator != address(0), \"Approval to zero address is prohibited\");\n    require(_operator != msg.sender);\n    _operatorApprovals[msg.sender][_operator] = _approved;\n    emit ApprovalForAll(msg.sender, _operator, _approved);\n  }\n\n  /**\n   * @dev Tells whether an operator is approved by a given owner\n   * @param _owner owner address which you want to query the approval of\n   * @param _operator operator address which you want to query the approval of\n   * @return bool whether the given operator is approved by the given owner\n   */\n  function isApprovedForAll(address _owner, address _operator) public view returns (bool) {\n    return _operatorApprovals[_owner][_operator];\n  }\n\n  /**\n   * @dev Transfers the ownership of a given token ID to another address\n   * Usage of this method is discouraged, use `safeTransferFrom` whenever possible\n   * Requires the msg sender to be the owner, approved, or operator\n   * @param _from current owner of the token\n   * @param _to address to receive the ownership of the given token ID\n   * @param _tokenId uint256 ID of the token to be transferred\n   */\n  function transferFrom(address _from, address _to, uint256 _tokenId) public {\n    require(_isApprovedOrOwner(msg.sender, _tokenId));\n    _transferFrom(_from, _to, _tokenId);\n  }\n\n  /**\n   * @dev Safely transfers the ownership of a given token ID to another address\n   * If the target address is a contract, it must implement `onERC721Received`,\n   * which is called upon a safe transfer, and return the magic value\n   * `bytes4(keccak256(\"onERC721Received(address,address,uint256,bytes)\"))`; otherwise,\n   * the transfer is reverted.\n   *\n   * Requires the msg sender to be the owner, approved, or operator\n   * @param _from current owner of the token\n   * @param _to address to receive the ownership of the given token ID\n   * @param _tokenId uint256 ID of the token to be transferred\n   */\n  function safeTransferFrom(address _from, address _to, uint256 _tokenId) public {\n    safeTransferFrom(_from, _to, _tokenId, \"\");\n  }\n\n  /**\n   * @dev Safely transfers the ownership of a given token ID to another address\n   * If the target address is a contract, it must implement `onERC721Received`,\n   * which is called upon a safe transfer, and return the magic value\n   * `bytes4(keccak256(\"onERC721Received(address,address,uint256,bytes)\"))`; otherwise,\n   * the transfer is reverted.\n   * Requires the msg sender to be the owner, approved, or operator\n   * @param _from current owner of the token\n   * @param _to address to receive the ownership of the given token ID\n   * @param _tokenId uint256 ID of the token to be transferred\n   * @param _data bytes data to send along with a safe transfer check\n   */\n  function safeTransferFrom(address _from, address _to, uint256 _tokenId, bytes _data) public {\n    transferFrom(_from, _to, _tokenId);\n    require(_checkOnERC721Received(_from, _to, _tokenId, _data)); \n  }\n\n  /**\n   * @dev Returns whether the specified token exists\n   * @param _tokenId uint256 ID of the token to query the existence of\n   * @return whether the token exists\n   */\n  function _exists(uint256 _tokenId) internal view returns (bool) {\n    address owner = cowToOwner[_tokenId];\n    return owner != address(0);\n  }\n\n  /**\n   * @dev Returns whether the given spender can transfer a given token ID\n   * @param _spender address of the spender to query\n   * @param _tokenId uint256 ID of the token to be transferred\n   * @return bool whether the msg.sender is approved for the given token ID,\n   *    is an operator of the owner, or is the owner of the token\n   */\n  function _isApprovedOrOwner(address _spender, uint256 _tokenId) internal view returns (bool) {\n    address owner = ownerOf(_tokenId);\n    return (_spender == owner || getApproved(_tokenId) == _spender || isApprovedForAll(owner, _spender));\n  }\n\n  /**\n   * @dev Internal function to transfer ownership of a given token ID to another address.\n   * As opposed to transferFrom, this imposes no restrictions on msg.sender.\n   * @param _from current owner of the token\n   * @param _to address to receive the ownership of the given token ID\n   * @param _tokenId uint256 ID of the token to be transferred\n   */\n  function _transferFrom(address _from, address _to, uint256 _tokenId) internal {\n    require(ownerOf(_tokenId) ==_from);\n    require(_to != address(0));\n    _clearApproval(_tokenId);\n\n    ownerCowCount[_from] = ownerCowCount[_from].sub(1);\n    ownerCowCount[_to]   = ownerCowCount[_to].add(1);\n\n    cowToOwner[_tokenId] = _to;\n    emit Transfer(_from, _to, _tokenId);  \n  }\n\n  /**\n   * @dev Private function to clear current approval of a given token ID\n   * @param _tokenId uint256 ID of the token to be transferred\n   */\n  function _clearApproval(uint256 _tokenId) private {\n    if (_tokenApprovals[_tokenId] != address(0)) {\n      _tokenApprovals[_tokenId] = address(0);\n    }\n  }\n\n  /**\n   * @dev Set the token URI for a given token by the owner\n   * Reverts if the token ID does not exist\n   * @param _tokenId uint256 ID of the token to set its URI\n   * @param _uri string URI to assign\n   */\n  function setTokenURI(uint256 _tokenId, string _uri) external {\n    address owner = ownerOf(_tokenId);\n    require(msg.sender == owner);\n    super._setTokenURI(_tokenId, _uri);\n  }\n\n  /**\n   * @dev External function to burn a specific token\n   * Reverts if the token does not exist\n   * Deprecated, use _burn(uint256) instead\n   * @param _tokenId uint256 ID of the token being burned by the msg.sender\n   */\n  function burn(uint256 _tokenId) external {\n    address owner = ownerOf(_tokenId);\n    require(msg.sender == owner);\n    super._burn(owner, _tokenId);\n  }\n}\n\n",
  "sourcePath": "/home/ether/work/truffle/cow-traceability/contracts/CowOwnership.sol",
  "compiler": {
    "name": "solc",
    "version": "0.4.25+commit.59dbf8f1.Emscripten.clang"
  },
  "schemaVersion": "2.0.2",
  "updatedAt": "2019-03-06T09:49:51.058Z"
}